:100000000C942A000C9447000C9447000C94470071
:100010000C9447000C9447000C9447000C94470044
:100020000C9447000C9447000C9447000C94470034
:100030000C9447000C9447000C9447000C94470024
:100040000C9447000C9447000C9447000C94470014
:100050000C94470011241FBECFE5D8E0DEBFCDBF12
:1000600010E0A0E6B0E0E4E4F1E102C005900D92FA
:10007000A037B107D9F710E0A0E7B0E001C01D92AA
:10008000A237B107E1F70E94A3050C94A0080C94D5
:100090000000EF92FF920F931F937B018C0120E0F1
:1000A00030E040E05FE40E94490388238CF0C801FF
:1000B000B70120E030E040E05FE40E94C1010E940F
:1000C000A9039B01AC01205030404040504806C07D
:1000D000C801B7010E94A9039B01AC01B901CA0183
:1000E0001F910F91FF90EF900895A0E0B0E0EBE733
:1000F000F0E00C946908DC012B01FA019C9192302C
:1001000008F439C1EB018881823008F433C194309E
:1001100069F4843009F02FC111969C91119789815F
:10012000981709F428C1A0E6B0E025C1843009F48D
:1001300021C18230A9F4923009F01DC19A01AD01AC
:1001400088E0EA010990AE01E90109929E0181501F
:10015000C1F7E201898111969C918923818308C1AD
:10016000923009F407C112962D903C901397EB0141
:100170008A819B811496AD90BD90CD90DC901797AD
:10018000EC80FD800E811F819101281B390BB90184
:1001900037FF04C066277727621B730B6032710537
:1001A0000CF061C0121613066CF537014801062EDB
:1001B00004C096948794779467940A94D2F721E0C8
:1001C00030E040E050E004C0220F331F441F551FB1
:1001D0006A95D2F721503040404050402E213F21B7
:1001E00040235123211531054105510521F021E01E
:1001F00030E040E050E079018A01E628F72808293C
:1002000019293CC0232BD1F1260E371E350146019A
:10021000062E04C096948794779467940A94D2F734
:1002200021E030E040E050E004C0220F331F441FC3
:10023000551F6A95D2F721503040404050402A2146
:100240003B214C215D21211531054105510521F04E
:1002500021E030E040E050E059016A01A628B728CB
:10026000C828D9280BC0821593052CF01C01AA249C
:10027000BB24650103C0EE24FF24870111969C91E5
:10028000D20111968C91981709F445C0992339F041
:10029000A80197012A193B094C095D0906C0A6016E
:1002A00095012E193F09400B510B57FD08C01182D3
:1002B0003382228224833583468357831DC081E0A5
:1002C00081833382228288279927DC01821B930B4A
:1002D000A40BB50B84839583A683B7830DC0220F2F
:1002E000331F441F551F24833583468357838281E0
:1002F000938101979383828324813581468157813D
:10030000DA01C9010197A109B1098F5F9F4FAF4F72
:10031000BF4328F30BC0918333822282EA0CFB1C7B
:100320000C1D1D1DE482F5820683178383E0808304
:10033000248135814681578157FF1AC0C901AA27F8
:1003400097FDA095BA2F81709070A070B0705695EF
:10035000479537952795822B932BA42BB52B848318
:100360009583A683B7838281938101969383828349
:10037000DF0101C0D201CD01CDB7DEB7E2E10C94BF
:100380008508A0E2B0E0E7ECF1E00C947508698321
:100390007A838B839C832D833E834F835887E9E048
:1003A000EE2EF12CEC0EFD1ECE010196B7010E943F
:1003B000D2048E010F5E1F4FCE010596B8010E9438
:1003C000D2048A8991E089278A8BC701B801AE01DE
:1003D000475E5F4F0E9475000E94FD03A096E6E015
:1003E0000C949108A0E2B0E0E8EFF1E00C947508FD
:1003F00069837A838B839C832D833E834F835887C5
:10040000F9E0EF2EF12CEC0EFD1ECE010196B701A6
:100410000E94D2048E010F5E1F4FCE010596B801D7
:100420000E94D204C701B801AE01475E5F4F0E942F
:1004300075000E94FD03A096E6E00C949108A0E2EE
:10044000B0E0E5E2F2E00C94690869837A838B837B
:100450009C832D833E834F835887CE010196BE0136
:10046000675F7F4F0E94D204CE010596BE016F5E8A
:100470007F4F0E94D2049985923088F0898982301A
:10048000C8F0943019F4823051F404C0843029F457
:10049000923081F480E690E0C6C0923049F420E0CA
:1004A0009A858A89981321E02A87CE010996BBC0D4
:1004B000823049F420E09A858A89981321E02A8BBA
:1004C000CE014196B0C02D843E844F8458886D88FB
:1004D0007E888F88988CEE24FF248701AA24BB2471
:1004E000650140E050E060E070E0E0E0F0E0C10174
:1004F00081709070892BE9F0E60CF71C081D191D1E
:100500009A01AB012A0D3B1D4C1D5D1D80E090E062
:10051000A0E0B0E0E614F7040805190520F481E036
:1005200090E0A0E0B0E0BA01A901480F591F6A1F8E
:100530007B1FAA0CBB1CCC1CDD1C97FE08C081E0F5
:1005400090E0A0E0B0E0A82AB92ACA2ADB2A3196B6
:10055000E032F10549F0660C771C881C991C569412
:10056000479437942794C3CFFA85EA892B893C892D
:100570008B859C85280F391F2E5F3F4F17C0CA01FE
:1005800081709070892B61F016950795F794E79428
:1005900080E090E0A0E0B0E8E82AF92A0A2B1B2BC3
:1005A00076956795579547952F5F3F4F77FDE7CF36
:1005B0000CC0440F551F661F771F17FD4160EE0CDE
:1005C000FF1C001F111F21503040403090E05907A0
:1005D00090E0690790E4790760F32B8F3C8FDB0193
:1005E000CA018F779070A070B07080349105A1051A
:1005F000B10561F447FD0AC0E114F10401051105DC
:1006000029F0405C5F4F6F4F7F4F40781A8EFE1786
:1006100011F081E08A8F4D8F5E8F6F8F78A383E01A
:10062000898FCE0149960E94FD03A096E2E10C94C9
:100630008508A8E1B0E0EFE1F3E00C947508698368
:100640007A838B839C832D833E834F83588789E0F5
:10065000E82EF12CEC0EFD1ECE010196B7010E9492
:10066000D2048E010F5E1F4FCE010596B8010E9485
:10067000D2048985823040F08989823028F0C70110
:10068000B8010E944A0501C08FEF6896E6E00C941D
:100690009108A8E1B0E0EFE4F3E00C9475086983F9
:1006A0007A838B839C832D833E834F83588789E095
:1006B000E82EF12CEC0EFD1ECE010196B7010E9432
:1006C000D2048E010F5E1F4FCE010596B8010E9425
:1006D000D2048985823040F08989823028F0C701B0
:1006E000B8010E944A0501C08FEF6896E6E00C94BD
:1006F0009108A8E1B0E0EFE7F3E00C947508698396
:100700007A838B839C832D833E834F83588789E034
:10071000E82EF12CEC0EFD1ECE010196B7010E94D1
:10072000D2048E010F5E1F4FCE010596B8010E94C4
:10073000D2048985823040F08989823028F0C7014F
:10074000B8010E944A0501C081E06896E6E00C9479
:100750009108ACE0B0E0EFEAF3E00C94790869832B
:100760007A838B839C83CE010196BE016B5F7F4FA2
:100770000E94D2048D81823061F1823050F1843048
:1007800021F48E81882351F12EC02F81388537FDC9
:1007900020C06E812F3131051CF06623F9F023C093
:1007A0008EE190E0821B930B29853A854B855C8511
:1007B00004C056954795379527958A95D2F76623B5
:1007C000B1F050954095309521953F4F4F4F5F4F79
:1007D0000EC020E030E040E050E009C02FEF3FEFD6
:1007E0004FEF5FE704C020E030E040E050E8B9019F
:1007F000CA012C96E2E00C949508DF92EF92FF92EA
:100800000F931F93FC01E480F58006811781D1804E
:100810008081823048F480E090E0A0E1B0E0E82AF6
:10082000F92A0A2B1B2BA5C0843009F49FC0823003
:1008300021F4EE24FF24870105C0E114F104010531
:10084000110519F4E0E0F0E096C0628173819FEF3A
:10085000623879070CF05BC022E83FEF261B370BAC
:100860002A3131052CF020E030E040E050E02AC091
:10087000B801A701022E04C0769567955795479554
:100880000A94D2F781E090E0A0E0B0E004C0880FC5
:10089000991FAA1FBB1F2A95D2F70197A109B10979
:1008A0008E219F21A023B1230097A105B10521F03E
:1008B00081E090E0A0E0B0E09A01AB01282B392B59
:1008C0004A2B5B2BDA01C9018F779070A070B07052
:1008D00080349105A105B10539F427FF09C0205CDA
:1008E0003F4F4F4F5F4F04C0215C3F4F4F4F5F4F13
:1008F000E0E0F0E02030A0E03A07A0E04A07A0E402
:100900005A0710F0E1E0F0E079018A0127C0603871
:10091000710564F5FB01E158FF4FD801C7018F77DE
:100920009070A070B07080349105A105B10539F4C4
:10093000E7FE0DC080E490E0A0E0B0E004C08FE3EB
:1009400090E0A0E0B0E0E80EF91E0A1F1B1F17FFA1
:1009500005C016950795F794E794319687E01695AC
:100960000795F794E7948A95D1F705C0EE24FF2404
:100970008701EFEFF0E06E2F679566276795902F60
:100980009F77D794DD24D7948E2F8695492F462BB9
:10099000582F5D29B701CA011F910F91FF90EF9069
:1009A000DF900895FC01DB01408151812281622F9B
:1009B0006F7770E0221F2227221F9381892F880FD3
:1009C000822B282F30E0991F9927991F11969C930D
:1009D000119721153105A9F54115510561057105DD
:1009E00011F482E037C082E89FEF13969C938E93B8
:1009F00012979A01AB0167E0220F331F441F551F66
:100A00006A95D1F783E08C930DC0220F331F441FEA
:100A1000551F12968D919C911397019713969C9355
:100A20008E931297203080E0380780E0480780E4FA
:100A3000580758F314962D933D934D935C93179755
:100A400008952F3F310579F4411551056105710570
:100A500019F484E08C93089564FF03C081E08C93C3
:100A600012C01C9210C02F57304013963C932E9307
:100A7000129783E08C9387E0440F551F661F771F02
:100A80008A95D1F7706414964D935D936D937C9322
:100A9000179708951F93DC01FB019C91923008F495
:100AA00047C08081823008F443C0943051F41196DD
:100AB0001C91843099F58181682F70E0611B710968
:100AC0003FC0843021F0923031F48230B9F181811D
:100AD000882389F12DC011961C9111978230F1F075
:100AE00081811817D9F412962D913C911397828128
:100AF00093818217930794F028173907BCF0149656
:100B00008D919D910D90BC91A02D248135814681C0
:100B10005781281739074A075B0718F4112341F05A
:100B20000AC082179307A407B50740F4112319F0F0
:100B300061E070E005C06FEF7FEF02C060E070E041
:100B4000CB011F910895DF93CF9300D000D0CDB794
:100B5000DEB7EAE3F0E08FEF8083E7E3F0E08FEFCA
:100B60008083E1E3F0E01082E2E3F0E08FEF808346
:100B7000E0E3F0E08081882F90E08470907000972F
:100B8000E1F480917000909171008830910554F4E7
:100B900080917000909171009C012F5F3F4F3C83CA
:100BA0002B8302C01C821B828B819C8190937100DD
:100BB000809370000E940306DBCFE0E3F0E08081C9
:100BC000882F90E082709070009791F6809170006D
:100BD00090917100992354F0809170009091710070
:100BE0009C01215030403A83298304C087E090E083
:100BF0009A83898329813A81309371002093700010
:100C00000E943607B5CFDF93CF93CDB7DEB76C9791
:100C10000FB6F894DEBF0FBECDBF809170009091EB
:100C2000710099230CF489C080917000909171003B
:100C3000843091050CF081C0E8E3F0E01082ABE372
:100C4000B0E08091700090917100FC01E859FF4F75
:100C500080818C9380E090E0A8E4B3E4898F9A8F40
:100C6000AB8FBC8F698D7A8D8B8D9C8D20E030E0B1
:100C70004AEF54E40E941F02DC01CB018D8B9E8B56
:100C8000AF8BB88F6D897E898F89988D20E030E099
:100C900040E85FE30E94790388232CF481E090E030
:100CA0009C8B8B8B3FC06D897E898F89988D20E0CE
:100CB0003FEF4FE757E40E94190318164CF5698D72
:100CC0007A8D8B8D9C8D20E030E040E251E40E94D3
:100CD0001F02DC01CB01BC01CD010E944900DC01F7
:100CE000CB019C8B8B8B0FC088EC90E09A8B898B0F
:100CF00089899A890197F1F79A8B898B8B899C89CD
:100D000001979C8B8B8B8B899C89009769F7A5C079
:100D10006D897E898F89988D0E944900DC01CB0105
:100D20009C8B8B8B8B899C89988B8F878F859889DF
:100D30000197F1F7988B8F8790C080917000909108
:100D40007100843091050CF488C0809170009091FE
:100D50007100883091050CF080C0EBE3F0E0108268
:100D6000A8E3B0E08091700090917100FC01E85917
:100D7000FF4F80818C9380E090E0A8E4B3E48B8700
:100D80009C87AD87BE876B857C858D859E8520E0A1
:100D900030E04AEF54E40E941F02DC01CB018F8354
:100DA0009887A987BA876F81788589859A8520E099
:100DB00030E040E85FE30E94790388232CF481E06F
:100DC00090E09E838D833FC06F81788589859A8569
:100DD00020E03FEF4FE757E40E94190318164CF547
:100DE0006B857C858D859E8520E030E040E251E476
:100DF0000E941F02DC01CB01BC01CD010E94490011
:100E0000DC01CB019E838D830FC088EC90E09C8336
:100E10008B838B819C810197F1F79C838B838D81E0
:100E20009E8101979E838D838D819E81009769F7B6
:100E300014C06F81788589859A850E944900DC01FC
:100E4000CB019E838D838D819E819A838983898145
:100E50009A810197F1F79A8389836C960FB6F8947B
:100E6000DEBF0FBECDBFCF91DF910895DF93CF934B
:100E7000CDB7DEB76C970FB6F894DEBF0FBECDBF0F
:100E8000809170009091710099230CF489C0809139
:100E9000700090917100843091050CF081C0E8E3FE
:100EA000F0E01082ABE3B0E08091700090917100AF
:100EB000FC01E859FF4F80818C9380E090E0A8E42A
:100EC000B3E4898F9A8FAB8FBC8F698D7A8D8B8DB0
:100ED0009C8D20E030E04AEF54E40E941F02DC01C8
:100EE000CB018D8B9E8BAF8BB88F6D897E898F895F
:100EF000988D20E030E040E85FE30E94790388238A
:100F00002CF481E090E09C8B8B8B3FC06D897E89B7
:100F10008F89988D20E03FEF4FE757E40E94190337
:100F200018164CF5698D7A8D8B8D9C8D20E030E004
:100F300040E251E40E941F02DC01CB01BC01CD0163
:100F40000E944900DC01CB019C8B8B8B0FC088EC8D
:100F500090E09A8B898B89899A890197F1F79A8B0E
:100F6000898B8B899C8901979C8B8B8B8B899C8926
:100F7000009769F7A5C06D897E898F89988D0E9439
:100F80004900DC01CB019C8B8B8B8B899C89988BD6
:100F90008F878F8598890197F1F7988B8F8790C0FD
:100FA0008091700090917100843091050CF488C09C
:100FB0008091700090917100883091050CF080C094
:100FC000EBE3F0E01082A8E3B0E080917000909134
:100FD0007100FC01E859FF4F80818C9380E090E024
:100FE000A8E4B3E48B879C87AD87BE876B857C853F
:100FF0008D859E8520E030E04AEF54E40E941F0278
:10100000DC01CB018F839887A987BA876F817885A8
:1010100089859A8520E030E040E85FE30E9479030B
:1010200088232CF481E090E09E838D833FC06F8104
:10103000788589859A8520E03FEF4FE757E40E9445
:10104000190318164CF56B857C858D859E8520E0EF
:1010500030E040E251E40E941F02DC01CB01BC0100
:10106000CD010E944900DC01CB019E838D830FC01E
:1010700088EC90E09C838B838B819C810197F1F7B6
:101080009C838B838D819E8101979E838D838D812F
:101090009E81009769F714C06F81788589859A854C
:1010A0000E944900DC01CB019E838D838D819E814E
:1010B0009A83898389819A810197F1F79A83898339
:1010C0006C960FB6F894DEBF0FBECDBFCF91DF9107
:1010D00008952F923F924F925F926F927F928F92DC
:1010E0009F92AF92BF92CF92DF92EF92FF920F93B7
:1010F0001F93CF93DF93CDB7DEB7CA1BDB0B0FB6C1
:10110000F894DEBF0FBECDBF09942A88398848887D
:101110005F846E847D848C849B84AA84B984C88413
:10112000DF80EE80FD800C811B81AA81B981CE0F0A
:10113000D11D0FB6F894DEBF0FBECDBFED010895EF
:04114000F894FFCF51
:101144000000000000000000010204080810200153
:00000001FF
